:030000000201F901
:0C01F900787FE4F6D8FD758120020240FA
:1004A00000010203040506073F065B4F666D7D07EA
:0204B0007F6F5C
:0204F100C180C8
:0504EB001204F0D2C86C
:0104F00022E9
:10042400EF1FAA0670011E4A60127C0B7DBEAB044E
:0C0434001CEB60ECAB051DEB60F480F8E5
:010440002299
:0604E40000007F48DFFE6E
:0104EA0022EF
:10044100750E097980AF0E150EEF600F7F087E00E3
:0B0451001204248980E9C313F980EA3B
:01045C00227D
:10048E00D2C81204F0D2C01204F0E4F508F50AF551
:02049E00092231
:0A04D000D2C01204EBC2C00204F017
:0A04DA00C2C01204EBD2C00204F00D
:0B04010012000312040CAF05120003F0
:10040C00E4FFD2C81204F030C009EFC394FF5003CC
:08041C000F80F4C2C80204F0D5
:10000300E4FEEF25E0FFC2C81204F092C01204EB35
:0E0013000EBE08EEC2C81204F0D2C00204F005
:1003D600C2C81204F0D2C01204F0E4FED2C812045D
:1003E600F0EF25E0FDA2C0E4334DFF1204F0C2C8D1
:0A03F6001204F00EBE08E51204F038
:0104000022D9
:10047900AC071204D07FA012000312040CAF0412BF
:0504890004010204DA89
:02045D00AD07E9
:10045F001204D07FA01204011204D07FA112000356
:09046F0012040C1203D61204DA87
:010478002261
:10028500751000751140E4F50EF50FC3E50F9511D6
:10029500E50E95105044E50F5403146010146017D3
:1002A50014601E24037022D2C1C2C28004C2C1D20E
:1002B500C2C2C3C2C48012C2C1C2C2D2C3C2C48038
:1002C50008C2C1C2C2C2C3D2C47F017E00120424C7
:0D02D500050FE50F70B5050E80B1E4F5C012
:0102E20022F9
:0604C200AF040C12045D02
:0804C8008F992000FDD20022F3
:060333008C0E8D0FA907DE
:10033900E4FCE599B4220EECC3942050081204C2DF
:100349001204C280F2AF011204C87F0A7E001204AF
:1003590024E9F4659970EEE50EFF1204C8AF0F02A7
:0203690004C8C6
:10036B00E4F5B375B4FFF5C0F5937594FFF595758A
:10037B009608D2B3F580758901F58CF58A439850B0
:10038B00758DFE758BE0758E40C298C299D28ED258
:06039B00ACD2AF02048E9B
:1002E300C28ED2911204E4C291E4F58AF58C309067
:1002F300FDD28C2090FDC28CAF8CEFFEAD8A7C00CA
:10030300E42DFDEC3EFCE41201317BC57A2079300B
:10031300783E12002612016A8E0C8F0DD3E50D94E0
:10032300A0E50C940F4006750C0F750DA0D28E221C
:030023000204B222
:1004B20030980585990BC298309904C200C29932CE
:1003A10012036B1202E3120441AD0DAC0C7F11126A
:1003B1000333AF080508E50CFD120479AF08050801
:1003C100E50DFD120479E508C394404003E4F50806
:0503D10012028580CE40
:10002600EC4D6011E8497017ED33EC3304600DE4D4
:10003600FCFFFEFD22E933E8330470F80201D61214
:1000460001A158046009E4CC248150062850090215
:1000560001E02840030201DDC0E0EB4A7044B980AC
:1000660006D0E0FB0201CCEF4E701CBD8008EBFF12
:10007600EAFEE9FD80EBE98DF0A4FEE5F002010F52
:10008600E9CDF9EAFEEBFFEF89F0A4FCE5F0CE89B5
:10009600F0A42EFFE435F0CD89F0A42DFEE435F072
:1000A6008067EF4E7005BD80D780C3EF8BF0A4ACA0
:1000B600F0EE8BF0A42CFCE435F0F8EF8AF0A42CDB
:1000C600E5F038FCE433CB8DF0A42CFCE5F03BF8EE
:1000D600EE8AF0A42CFCE5F038F8E433CF89F0A4DE
:1000E6002CFCE5F038CF3400CE89F0A42FFFE5F0E4
:1000F6003EFEE433C98DF0A42EFEE5F039CD8AF03C
:10010600A42FFFE5F03EFEE43DFD33D0E0FB5007B3
:100116000BBB000F0201E0EC2CFCEF33FFEE33FECD
:06012600ED33FD0201B8FB
:10012C0075F020800E75F010800575F0087D007E4E
:10013C00007F003392D530D5031201EBEC33401025
:10014C00EF33FFEE33FEED33FDEC33FCD5F0ED2257
:0E015C00E5F0247EA2D513CC92E7CDCEFF2293
:10016A00EDD2E7CD33EC3392D524814006E4FFFE8D
:10017A00FDFC22FCE4CFCECDCC24E0501174FF80EC
:10018A00EDC3CC13CCCD13CDCE13CECF13CF047089
:07019A00F030D5DE0201EB9D
:1001A100E9D2E7C933E833F892D5EDD2E7CD33ECA4
:0701B10033FC5002B2D5221D
:1001B800EC30E7100FBF000C0EBE00080DBD0004A8
:1001C8000BEB6014A2D5EB13FCED92E7FD2274FF54
:1001D800FCFDFEFF22E480F8A2D574FF13FC7D80AD
:0301E800E480EFC1
:100205000203A1E493A3F8E493A34003F68001F26B
:1002150008DFF48029E493A3F85407240CC8C333FA
:10022500C4540F4420C8834004F456800146F6DFC9
:10023500E4800B01020408102040809004F1E47E64
:10024500019360BCA3FF543F30E509541FFEE493BE
:10025500A360010ECF54C025E060A840B8E493A385
:10026500FAE493A3F8E493A3C8C582C8CAC583CAB0
:10027500F0A3C8C582C8CAC583CADFE9DEE780BE68
:0104F3000008
:0E01EB00C3E49FFFE49EFEE49DFDE49CFC2225
:00000001FF
