:030000000201F901
:0C01F900787FE4F6D8FD758120020240FA
:1004A90000010203040506073F065B4F666D7D07E1
:0204B9007F6F53
:02050800C180B0
:0504FC00120501D2C849
:0105010022D7
:10045800EF1FAA0670011E4A60127C0B7DBEAB041A
:0C0468001CEB60ECAB051DEB60F480F8B1
:010474002265
:0604F50000007F48DFFE5D
:0104FB0022DE
:10047500750E097980AF0E150EEF600F7F087E00AF
:0B0485001204588980E9C313F980EAD3
:010490002249
:0E04CB00D2C8120501D2C0120501E4F50822C4
:0A04D900D2C01204FCC2C0020501EB
:0A04E300C2C01204FCD2C0020501E1
:10049100E4FFD2C812050130C009EFC394FF500335
:0804A1000F80F4C2C80205013E
:10000300E4FEEF25E0FFC2C812050192C01204FC12
:0E0013000EBE08EEC2C8120501D2C0020501E1
:1003E400C2C8120501D2C0120501E4FED2C812052A
:1003F40001EF25E0FDA2C0E4334DFF120501C2C8A0
:0A0404001205010EBE08E512050105
:01040E0022CB
:100436008F0E8D0F1204D97FA0120003120000AF99
:100446000E120003120000AF0F120003120000028A
:0204560004E3BD
:02040F008F124A
:100411001204D97FA0120003120000AF12120003D0
:100421001200001204D97FA112000312000012036E
:04043100E41204E3EA
:0104350022A4
:10028500751000751140E4F50EF50FC3E50F9511D6
:10029500E50E95105044E50F5403146010146017D3
:1002A50014601E24037022D2C1C2C28004C2C1D20E
:1002B500C2C2C3C2C48012C2C1C2C2D2C3C2C48038
:1002C50008C2C1C2C2C2C3D2C47F017E0012045893
:0D02D500050FE50F70B5050E80B1E4F5C012
:0102E20022F9
:0804ED008F992000FDD20022CE
:0C0333008F0E8C0F8D10E5996422701F56
:10033F00F511E511C394205016AF11051112040FDA
:0F034F001204EDAF11051112040F1204ED80E33B
:10035E00AF0E1204ED7F0A7E00120458E50EF4650E
:0E036E009970EDE50FFF1204EDAF100204EDE3
:10037C00E4F5B375B4FFF5C0F5937594FFF5957579
:10038C009608D2B3F580758901F58CF58A4398509F
:10039C00758DFE758BE0758E40C298C299D28ED247
:0603AC00ACD2AF0204CB4D
:1002E300C28ED2911204F5C291E4F58AF58C309056
:1002F300FDD28C2090FDC28CAF8CEFFEAD8A7C00CA
:10030300E42DFDEC3EFCE41201317BC57A2079300B
:10031300783E12002612016A8E0C8F0DD3E50D94E0
:10032300A0E50C940F4006750C0F750DA0D28E221C
:1003B2001202E3120475AD0DAC0C7F11120333AFC0
:1003C200080508E50CFD120436AF080508E50DFD29
:1003D200120436E508C394404003E4F5081202858E
:0203E20080CECB
:0605020012037C0203B2AB
:030023000204BB19
:1004BB0030980585990BC298309904C200C29932C5
:10002600EC4D6011E8497017ED33EC3304600DE4D4
:10003600FCFFFEFD22E933E8330470F80201D61214
:1000460001A158046009E4CC248150062850090215
:1000560001E02840030201DDC0E0EB4A7044B980AC
:1000660006D0E0FB0201CCEF4E701CBD8008EBFF12
:10007600EAFEE9FD80EBE98DF0A4FEE5F002010F52
:10008600E9CDF9EAFEEBFFEF89F0A4FCE5F0CE89B5
:10009600F0A42EFFE435F0CD89F0A42DFEE435F072
:1000A6008067EF4E7005BD80D780C3EF8BF0A4ACA0
:1000B600F0EE8BF0A42CFCE435F0F8EF8AF0A42CDB
:1000C600E5F038FCE433CB8DF0A42CFCE5F03BF8EE
:1000D600EE8AF0A42CFCE5F038F8E433CF89F0A4DE
:1000E6002CFCE5F038CF3400CE89F0A42FFFE5F0E4
:1000F6003EFEE433C98DF0A42EFEE5F039CD8AF03C
:10010600A42FFFE5F03EFEE43DFD33D0E0FB5007B3
:100116000BBB000F0201E0EC2CFCEF33FFEE33FECD
:06012600ED33FD0201B8FB
:10012C0075F020800E75F010800575F0087D007E4E
:10013C00007F003392D530D5031201EBEC33401025
:10014C00EF33FFEE33FEED33FDEC33FCD5F0ED2257
:0E015C00E5F0247EA2D513CC92E7CDCEFF2293
:10016A00EDD2E7CD33EC3392D524814006E4FFFE8D
:10017A00FDFC22FCE4CFCECDCC24E0501174FF80EC
:10018A00EDC3CC13CCCD13CDCE13CECF13CF047089
:07019A00F030D5DE0201EB9D
:1001A100E9D2E7C933E833F892D5EDD2E7CD33ECA4
:0701B10033FC5002B2D5221D
:1001B800EC30E7100FBF000C0EBE00080DBD0004A8
:1001C8000BEB6014A2D5EB13FCED92E7FD2274FF54
:1001D800FCFDFEFF22E480F8A2D574FF13FC7D80AD
:0301E800E480EFC1
:10020500020502E493A3F8E493A34003F68001F208
:1002150008DFF48029E493A3F85407240CC8C333FA
:10022500C4540F4420C8834004F456800146F6DFC9
:10023500E4800B0102040810204080900508E47E4C
:10024500019360BCA3FF543F30E509541FFEE493BE
:10025500A360010ECF54C025E060A840B8E493A385
:10026500FAE493A3F8E493A3C8C582C8CAC583CAB0
:10027500F0A3C8C582C8CAC583CADFE9DEE780BE68
:01050A0000F0
:0E01EB00C3E49FFFE49EFEE49DFDE49CFC2225
:00000001FF
