:030000000201F901
:0C01F900787FE4F6D8FD758120020240FA
:1003BD0000010203040506073F065B4F666D7D07CE
:0203CD007F6F40
:02002000C1809D
:10000300EF1FAA0670011E4A60127C0B7DBEAB0473
:0C0013001CEB60ECAB051DEB60F480F80A
:01001F0022BE
:0603E70000007F48DFFE6C
:0103ED0022ED
:10038A007508097980AF081508EF600F7F0A7E00AB
:0B039A001200038980E9C313F980EA18
:0103A5002235
:0803DF008F992000FDD20022DD
:100367008C088D09A907AF011203DF7F327E0012C7
:100377000003E9F4659970EEE508FF1203DFAF09A2
:030387000203DF8F
:10028500750A00750B40E4F508F509C3E509950BFA
:10029500E508950A5044E5095403146010146017E5
:1002A50014601E24037022D2C1C2C28004C2C1D20E
:1002B500C2C2C3C2C48012C2C1C2C2D2C3C2C48038
:1002C50008C2C1C2C2C2C3D2C47F017E00120003EC
:0D02D5000509E50970B5050880B1E4F5C024
:0102E20022F9
:10033300E4F5B375B4FFF5C0F5937594FFF59575C2
:100343009608D2B3F580758901F58CF58A439850E8
:10035300758DFE758BE0758E40C298C299D28ED290
:04036300ACD2AF2247
:1002E300C28ED2911203E7C291E4F58AF58C309065
:1002F300FDD28C2090FDC28CAF8CEFFEAD8A7C00CA
:10030300E42DFDEC3EFCE41201317BC57A2079300B
:10031300783E12002612016A8E0D8F0ED3E50E94DD
:10032300A0E50D940F4006750D0F750EA0D28E2219
:030023000203CF06
:1003CF0030980585990CC298309904C200C29932B1
:1003A6001203331202E312038AAD0EAC0D7F111253
:0703B600036712028580ECD1
:10002600EC4D6011E8497017ED33EC3304600DE4D4
:10003600FCFFFEFD22E933E8330470F80201D61214
:1000460001A158046009E4CC248150062850090215
:1000560001E02840030201DDC0E0EB4A7044B980AC
:1000660006D0E0FB0201CCEF4E701CBD8008EBFF12
:10007600EAFEE9FD80EBE98DF0A4FEE5F002010F52
:10008600E9CDF9EAFEEBFFEF89F0A4FCE5F0CE89B5
:10009600F0A42EFFE435F0CD89F0A42DFEE435F072
:1000A6008067EF4E7005BD80D780C3EF8BF0A4ACA0
:1000B600F0EE8BF0A42CFCE435F0F8EF8AF0A42CDB
:1000C600E5F038FCE433CB8DF0A42CFCE5F03BF8EE
:1000D600EE8AF0A42CFCE5F038F8E433CF89F0A4DE
:1000E6002CFCE5F038CF3400CE89F0A42FFFE5F0E4
:1000F6003EFEE433C98DF0A42EFEE5F039CD8AF03C
:10010600A42FFFE5F03EFEE43DFD33D0E0FB5007B3
:100116000BBB000F0201E0EC2CFCEF33FFEE33FECD
:06012600ED33FD0201B8FB
:10012C0075F020800E75F010800575F0087D007E4E
:10013C00007F003392D530D5031201EBEC33401025
:10014C00EF33FFEE33FEED33FDEC33FCD5F0ED2257
:0E015C00E5F0247EA2D513CC92E7CDCEFF2293
:10016A00EDD2E7CD33EC3392D524814006E4FFFE8D
:10017A00FDFC22FCE4CFCECDCC24E0501174FF80EC
:10018A00EDC3CC13CCCD13CDCE13CECF13CF047089
:07019A00F030D5DE0201EB9D
:1001A100E9D2E7C933E833F892D5EDD2E7CD33ECA4
:0701B10033FC5002B2D5221D
:1001B800EC30E7100FBF000C0EBE00080DBD0004A8
:1001C8000BEB6014A2D5EB13FCED92E7FD2274FF54
:1001D800FCFDFEFF22E480F8A2D574FF13FC7D80AD
:0301E800E480EFC1
:100205000203A6E493A3F8E493A34003F68001F266
:1002150008DFF48029E493A3F85407240CC8C333FA
:10022500C4540F4420C8834004F456800146F6DFC9
:10023500E4800B0102040810204080900020E47E39
:10024500019360BCA3FF543F30E509541FFEE493BE
:10025500A360010ECF54C025E060A840B8E493A385
:10026500FAE493A3F8E493A3C8C582C8CAC583CAB0
:10027500F0A3C8C582C8CAC583CADFE9DEE780BE68
:0100220000DD
:0E01EB00C3E49FFFE49EFEE49DFDE49CFC2225
:00000001FF
