:030000000202B148
:0C02B100787FE4F6D8FD7581200202F889
:1005210000010203040506073F065B4F666D7D0768
:020531007F6FDA
:02058000C18038
:05057400120579D2C858
:01057900225F
:1004CC00EF1FAA0670011E4A60127C0B7DBEAB04A6
:0C04DC001CEB60ECAB051DEB60F480F83D
:0104E80022F1
:06056D0000007F48DFFEE4
:010573002265
:1004E900750F097980AF0F150FEF600F7F087E0038
:0B04F9001204CC8980E9C313F980EAEB
:0105040022D4
:0E054300D2C8120579D2C0120579E4F508225B
:0A055100D2C0120574C2C002057981
:0A055B00C2C0120574D2C002057977
:0B04A9001200031204B4AF05120003A0
:1004B400E4FFD2C812057930C009EFC394FF50039A
:0804C4000F80F4C2C8020579A3
:10000300E4FEEF25E0FFC2C812057992C012057421
:0E0013000EBE08EEC2C8120579D2C0020579F1
:10045500C2C8120579D2C0120579E4FED2C81205C8
:1004650079EF25E0FDA2C0E4334DFF120579C2C83E
:0A0475001205790EBE08E5120579A4
:01047F00225A
:10048000E50E25E0FFE50CFD120494E50E25E004E1
:04049000FFE50DFD7A
:10049400AC071205517FA01200031204B4AF04127A
:0504A40004A902055B44
:02050500AD0740
:100507001205517FA01204A91205517FA112000301
:090517001204B412045512055B34
:0105200022B8
:1001F900751100751240300157E4F50FF510C3E58C
:10020900109512E50F951140030202ADE510540354
:1002190014601014601714601E24037022D2C1C226
:10022900C28004C2C1D2C2C2C3C2C48012C2C1C286
:10023900C2D2C3C2C48008C2C1C2C2C2C3D2C47FAF
:10024900017E001204CC0510E51070B2050F80AED6
:10025900E4F50FF510C3E5109512E50F951150441B
:10026900E510540314601414601B14601E240370F9
:1002790022C2C1C2C2C2C3D2C48018C2C1C2C2D2C0
:10028900C3C2C4800EC2C1D2C28004D2C1C2C2C21A
:10029900C3C2C47F017E001204CC0510E51070B5FD
:0702A900050F80B1E4F5C070
:0102B000222B
:080565008F992000FDD2002255
:0A038D008E0F8F10E5996422702294
:10039700F511E51125E0FF120505120565E51125A3
:1003A700E004FF1205051205650511E511C3942048
:0203B70040E024
:1003B9007F111205657F0A7E001204CCE59964EE6F
:0D03C90070EEE50FFF120565AF100205652F
:10041F00E4F5B375B4FFF5C0F5937594FFF59575D5
:10042F009608D2B3F580758901F58CF58A439850FB
:10043F00758DFE758BE0758E40C298C299D28ED2A3
:06044F00ACD2AF02054330
:10033D00C28ED29112056DC291E4F58AF58C309082
:10034D00FDD28C2090FDC28CAF8CEFFEAD8A7C006F
:10035D00E42DFDEC3EFCE41201317BC57A207930B1
:10036D00783E12002612016A8E0C8F0DD3E50D9486
:10037D00A0E50C940F4006750C0F750DA0D28E22C2
:1003D600E599B4EEFBE4F50E12033D1204E9AF0D08
:1003E600AE0C12038D120480D2011201F9050EE53E
:1003F6000EC3942040E2750E1FE50EC3940040D054
:1004060012033D1204E9AF0DAE0C12038D120480E7
:09041600C2011201F9150E80E08B
:06057A0012041F0203D66B
:03002300020533A0
:1005330030980585990BC298309904C200C299324C
:10002600EC4D6011E8497017ED33EC3304600DE4D4
:10003600FCFFFEFD22E933E8330470F80201D61214
:1000460001A158046009E4CC248150062850090215
:1000560001E02840030201DDC0E0EB4A7044B980AC
:1000660006D0E0FB0201CCEF4E701CBD8008EBFF12
:10007600EAFEE9FD80EBE98DF0A4FEE5F002010F52
:10008600E9CDF9EAFEEBFFEF89F0A4FCE5F0CE89B5
:10009600F0A42EFFE435F0CD89F0A42DFEE435F072
:1000A6008067EF4E7005BD80D780C3EF8BF0A4ACA0
:1000B600F0EE8BF0A42CFCE435F0F8EF8AF0A42CDB
:1000C600E5F038FCE433CB8DF0A42CFCE5F03BF8EE
:1000D600EE8AF0A42CFCE5F038F8E433CF89F0A4DE
:1000E6002CFCE5F038CF3400CE89F0A42FFFE5F0E4
:1000F6003EFEE433C98DF0A42EFEE5F039CD8AF03C
:10010600A42FFFE5F03EFEE43DFD33D0E0FB5007B3
:100116000BBB000F0201E0EC2CFCEF33FFEE33FECD
:06012600ED33FD0201B8FB
:10012C0075F020800E75F010800575F0087D007E4E
:10013C00007F003392D530D5031201EBEC33401025
:10014C00EF33FFEE33FEED33FDEC33FCD5F0ED2257
:0E015C00E5F0247EA2D513CC92E7CDCEFF2293
:10016A00EDD2E7CD33EC3392D524814006E4FFFE8D
:10017A00FDFC22FCE4CFCECDCC24E0501174FF80EC
:10018A00EDC3CC13CCCD13CDCE13CECF13CF047089
:07019A00F030D5DE0201EB9D
:1001A100E9D2E7C933E833F892D5EDD2E7CD33ECA4
:0701B10033FC5002B2D5221D
:1001B800EC30E7100FBF000C0EBE00080DBD0004A8
:1001C8000BEB6014A2D5EB13FCED92E7FD2274FF54
:1001D800FCFDFEFF22E480F8A2D574FF13FC7D80AD
:0301E800E480EFC1
:1002BD0002057AE493A3F8E493A34003F68001F2D8
:1002CD0008DFF48029E493A3F85407240CC8C33342
:1002DD00C4540F4420C8834004F456800146F6DF11
:1002ED00E4800B0102040810204080900580E47E1C
:1002FD00019360BCA3FF543F30E509541FFEE49306
:10030D00A360010ECF54C025E060A840B8E493A3CC
:10031D00FAE493A3F8E493A3C8C582C8CAC583CAF7
:10032D00F0A3C8C582C8CAC583CADFE9DEE780BEAF
:010582000078
:0E01EB00C3E49FFFE49EFEE49DFDE49CFC2225
:00000001FF
