:03000000020332C6
:0C033200787FE4F6D8FD75816302037942
:10055A0000010203040506073F065B4F666D7D072F
:02056A007F6FA1
:0205B500C18003
:10044700E50825E0FFE562FD1205457F0112046519
:0E045700E50825E004FFE563FD1205457F0181
:10046500AC071FEC60127D0B7EBEAC051DEC60F089
:08047500AC061EEC60F480F8F7
:01047D00225C
:0605A20000007F48DFFEAF
:0105A8002230
:100516007B097A80AF031BEF600D7F081204658AA2
:0705260080EAC313FA80ED27
:01052D0022AB
:1001F900750900750A4020014DE4FAFBC3EB950A25
:10020900EA95094003020299EB5403146010146043
:100219001714601E24037022D2C1C2C28004C2C155
:10022900D2C2C2C3C2C48012C2C1C2C2D2C3C2C472
:100239008008C2C1C2C2C2C3D2C47F011204650B05
:10024900BB00010A80B6E4FAFBC3EB950AEA9509FB
:10025900503EEB540314601414601B14601E2403F5
:100269007022C2C1C2C2C2C3D2C48018C2C1C2C232
:10027900D2C3C2C4800EC2C1D2C28004D2C1C2C21A
:10028900C2C3C2C47F011204650BBB00010A80B955
:03029900E4F5C0C9
:01029C00223F
:10052E0020B20302051620B304D20180052097F0F5
:07053E00C2011201F980E97E
:1003BE00C28ED2911205A2C291E4F58AF58C3090CC
:1003CE00FDD28C2090FDC28CAF8CEFFEAD8A7C00EE
:1003DE00E42DFDEC3EFCE41201317BC57A20793030
:1003EE00783E12002612016A8E628F63D3E5639403
:1003FE00A0E562940F400675620F7563A0D28E223F
:0505A9001205AED2CDE9
:0105AE00222A
:0A057C00D2CD1205AED2C00205AECA
:0A058600D2C01205A9C2C00205AEE2
:0A059000C2C01205A9D2C00205AED8
:0B04D7001200031204E2AF0512000344
:1004E200E4FFD2CD1205AE30C009EFC394FF500332
:0804F2000F80F4C2CD0205AE3B
:10000300E4FEEF25E0FFC2CD1205AE92C01205A9B2
:0E0013000EBE08EEC2CD1205AED2C00205AE82
:1004AC00C2CD1205AED2C01205AEE4FED2CD1205FD
:1004BC00AEEF25E0FDA2C0E4334DFF1205AEC2CD78
:0A04CC001205AE0EBE08E51205AEE3
:0104D6002203
:10054500AC071205867FA01200031204E2AF041265
:0505550004D70205902F
:0204FA00AD074C
:1004FC001205867FA01204D71205867FA112000375
:09050C001204E21204AC12059085
:0105150022C3
:08059A008F992000FDD2002220
:0A029D001203BE120516AF63AE6235
:0A02A700AB07AA06E5996422706710
:1002B100F509C2AFF509E50925E0FF1204FAE509E0
:1002C10025E02421F8A6077F01120465E50925E050
:1002D10004FF1204FAE50925E02422F8A6077F01AC
:1002E1001204650509E509C3942040CAD2AF7F0114
:1002F100120465E4F509E50925E02421F8E6FF1279
:10030100059AE50925E02422F8E6FF12059A050978
:07031100E509C3942040DF61
:100318007F1112059A7F05120465E59964EE70F065
:0A032800AF0212059AAF0302059A16
:0300230002056C67
:10056C00309805859961C298309904C200C29932BD
:10040E00E4F5B375B4FFF5C0F5937594FFF59575E6
:10041E009608D2A3F580758901F58CF58A4398501C
:10042E00758E40758DFE758BE0C298C299D28ED2B4
:09043E00ACD2AF12057C02052EC0
:10047E00E599B4EEFBE508C39420500F12029D12CD
:10048E0004470508C2011201F980EAE50860E1128D
:0E049E00029D1204471508D2011201F980EDEB
:0605AF0012040E02047E9E
:10002600EC4D6011E8497017ED33EC3304600DE4D4
:10003600FCFFFEFD22E933E8330470F80201D61214
:1000460001A158046009E4CC248150062850090215
:1000560001E02840030201DDC0E0EB4A7044B980AC
:1000660006D0E0FB0201CCEF4E701CBD8008EBFF12
:10007600EAFEE9FD80EBE98DF0A4FEE5F002010F52
:10008600E9CDF9EAFEEBFFEF89F0A4FCE5F0CE89B5
:10009600F0A42EFFE435F0CD89F0A42DFEE435F072
:1000A6008067EF4E7005BD80D780C3EF8BF0A4ACA0
:1000B600F0EE8BF0A42CFCE435F0F8EF8AF0A42CDB
:1000C600E5F038FCE433CB8DF0A42CFCE5F03BF8EE
:1000D600EE8AF0A42CFCE5F038F8E433CF89F0A4DE
:1000E6002CFCE5F038CF3400CE89F0A42FFFE5F0E4
:1000F6003EFEE433C98DF0A42EFEE5F039CD8AF03C
:10010600A42FFFE5F03EFEE43DFD33D0E0FB5007B3
:100116000BBB000F0201E0EC2CFCEF33FFEE33FECD
:06012600ED33FD0201B8FB
:10012C0075F020800E75F010800575F0087D007E4E
:10013C00007F003392D530D5031201EBEC33401025
:10014C00EF33FFEE33FEED33FDEC33FCD5F0ED2257
:0E015C00E5F0247EA2D513CC92E7CDCEFF2293
:10016A00EDD2E7CD33EC3392D524814006E4FFFE8D
:10017A00FDFC22FCE4CFCECDCC24E0501174FF80EC
:10018A00EDC3CC13CCCD13CDCE13CECF13CF047089
:07019A00F030D5DE0201EB9D
:1001A100E9D2E7C933E833F892D5EDD2E7CD33ECA4
:0701B10033FC5002B2D5221D
:1001B800EC30E7100FBF000C0EBE00080DBD0004A8
:1001C8000BEB6014A2D5EB13FCED92E7FD2274FF54
:1001D800FCFDFEFF22E480F8A2D574FF13FC7D80AD
:0301E800E480EFC1
:10033E000205AFE493A3F8E493A34003F68001F221
:10034E0008DFF48029E493A3F85407240CC8C333C0
:10035E00C4540F4420C8834004F456800146F6DF8F
:10036E00E4800B01020408102040809005B5E47E65
:10037E00019360BCA3FF543F30E509541FFEE49384
:10038E00A360010ECF54C025E060A840B8E493A34B
:10039E00FAE493A3F8E493A3C8C582C8CAC583CA76
:1003AE00F0A3C8C582C8CAC583CADFE9DEE780BE2E
:0105B7000043
:0E01EB00C3E49FFFE49EFEE49DFDE49CFC2225
:00000001FF
