:030000000202B148
:0C02B100787FE4F6D8FD7581200202F889
:1004E90000010203040506073F065B4F666D7D07A1
:0204F9007F6F13
:02054F00C18069
:05054300120548D2C8BA
:010548002290
:10047F00EF1FAA0670011E4A60127C0B7DBEAB04F3
:0C048F001CEB60ECAB051DEB60F480F88A
:01049B00223E
:06053C0000007F48DFFE15
:010542002296
:10049C00750E097980AF0E150EEF600F7F087E0088
:0B04AC0012047F8980E9C313F980EA85
:0104B7002222
:0E051A00D2C8120548D2C0120548E4F50822E6
:0A052800D2C0120543C2C00205480C
:0A053200C2C0120543D2C002054802
:0B045C00120003120467AF051200033A
:10046700E4FFD2C812054830C009EFC394FF500318
:080477000F80F4C2C802054821
:10000300E4FEEF25E0FFC2C812054892C012054383
:0E0013000EBE08EEC2C8120548D2C002054853
:10043100C2C8120548D2C0120548E4FED2C812054E
:1004410048EF25E0FDA2C0E4334DFF120548C2C8C4
:0A0451001205480EBE08E51205482A
:01045B00227E
:1004D400AC071205287FA0120003120467AF0412B0
:0504E400045C0205327A
:0204B800AD078E
:1004BA001205287FA012045C1205287FA1120003EE
:0904CA001204671204311205321C
:0104D3002206
:1001F900751000751140300157E4F50EF50FC3E590
:100209000F9511E50E951040030202ADE50F540359
:1002190014601014601714601E24037022D2C1C226
:10022900C28004C2C1D2C2C2C3C2C48012C2C1C286
:10023900C2D2C3C2C48008C2C1C2C2C2C3D2C47FAF
:10024900017E0012047F050FE50F70B2050E80AE26
:10025900E4F50EF50FC3E50F9511E50E9510504421
:10026900E50F540314601414601B14601E240370FA
:1002790022C2C1C2C2C2C3D2C48018C2C1C2C2D2C0
:10028900C3C2C4800EC2C1D2C28004D2C1C2C2C21A
:10029900C3C2C47F017E0012047F050FE50F70B54C
:0702A900050E80B1E4F5C071
:0102B000222B
:07050B00AF1005101204B847
:080512008F992000FDD20022A8
:0C038D008C0E8D0FA907E59964227011F9
:10039900F510E510C39420500812050B12050B80C7
:0103A900F162
:1003AA00AF011205127F0A7E0012047FE9F46599F3
:0D03BA0070EEE50EFF120512AF0F020512E6
:1003C700E4F5B375B4FFF5C0F5937594FFF595752E
:1003D7009608D2B3F580758901F58CF58A43985054
:1003E700758DFE758BE0758E40C298C299D28ED2FC
:0603F700ACD2AF02051AB2
:10033D00C28ED29112053CC291E4F58AF58C3090B3
:10034D00FDD28C2090FDC28CAF8CEFFEAD8A7C006F
:10035D00E42DFDEC3EFCE41201317BC57A207930B1
:10036D00783E12002612016A8E0C8F0DD3E50D9486
:10037D00A0E50C940F4006750C0F750DA0D28E22C2
:1003FD0012033D12049CAD0DAC0C7F1112038DAF99
:10040D00080508E50CFD1204D4AF080508E50DFD3F
:10041D001204D4E508C394404003E4F508D2011258
:04042D0001F980CC85
:060549001203C70203FDCE
:030023000204FBD9
:1004FB0030980585990BC298309904C200C2993285
:10002600EC4D6011E8497017ED33EC3304600DE4D4
:10003600FCFFFEFD22E933E8330470F80201D61214
:1000460001A158046009E4CC248150062850090215
:1000560001E02840030201DDC0E0EB4A7044B980AC
:1000660006D0E0FB0201CCEF4E701CBD8008EBFF12
:10007600EAFEE9FD80EBE98DF0A4FEE5F002010F52
:10008600E9CDF9EAFEEBFFEF89F0A4FCE5F0CE89B5
:10009600F0A42EFFE435F0CD89F0A42DFEE435F072
:1000A6008067EF4E7005BD80D780C3EF8BF0A4ACA0
:1000B600F0EE8BF0A42CFCE435F0F8EF8AF0A42CDB
:1000C600E5F038FCE433CB8DF0A42CFCE5F03BF8EE
:1000D600EE8AF0A42CFCE5F038F8E433CF89F0A4DE
:1000E6002CFCE5F038CF3400CE89F0A42FFFE5F0E4
:1000F6003EFEE433C98DF0A42EFEE5F039CD8AF03C
:10010600A42FFFE5F03EFEE43DFD33D0E0FB5007B3
:100116000BBB000F0201E0EC2CFCEF33FFEE33FECD
:06012600ED33FD0201B8FB
:10012C0075F020800E75F010800575F0087D007E4E
:10013C00007F003392D530D5031201EBEC33401025
:10014C00EF33FFEE33FEED33FDEC33FCD5F0ED2257
:0E015C00E5F0247EA2D513CC92E7CDCEFF2293
:10016A00EDD2E7CD33EC3392D524814006E4FFFE8D
:10017A00FDFC22FCE4CFCECDCC24E0501174FF80EC
:10018A00EDC3CC13CCCD13CDCE13CECF13CF047089
:07019A00F030D5DE0201EB9D
:1001A100E9D2E7C933E833F892D5EDD2E7CD33ECA4
:0701B10033FC5002B2D5221D
:1001B800EC30E7100FBF000C0EBE00080DBD0004A8
:1001C8000BEB6014A2D5EB13FCED92E7FD2274FF54
:1001D800FCFDFEFF22E480F8A2D574FF13FC7D80AD
:0301E800E480EFC1
:1002BD00020549E493A3F8E493A34003F68001F209
:1002CD0008DFF48029E493A3F85407240CC8C33342
:1002DD00C4540F4420C8834004F456800146F6DF11
:1002ED00E4800B010204081020408090054FE47E4D
:1002FD00019360BCA3FF543F30E509541FFEE49306
:10030D00A360010ECF54C025E060A840B8E493A3CC
:10031D00FAE493A3F8E493A3C8C582C8CAC583CAF7
:10032D00F0A3C8C582C8CAC583CADFE9DEE780BEAF
:0105510000A9
:0E01EB00C3E49FFFE49EFEE49DFDE49CFC2225
:00000001FF
