:0300000002029D5C
:0C029D00787FE4F6D8FD7581200202E4B1
:1005290000010203040506073F065B4F666D7D0760
:020539007F6FD2
:02057E00C1803A
:09049E00FF1204DE1205697F0162
:1004A700AC071FEC60127D0B7EBEAC051DEC60F047
:0804B700AC061EEC60F480F8B5
:0104BF00221A
:0605710000007F48DFFEE0
:010577002261
:1004FA007B097A80AF031BEF600D7F081204A78A7D
:07050A0080EAC313FA80ED43
:0105110022C7
:1001F900750C00750D4020014DE4FAFBC3EB950D1C
:10020900EA950C4003020299EB5403146010146040
:100219001714601E24037022D2C1C2C28004C2C155
:10022900D2C2C2C3C2C48012C2C1C2C2D2C3C2C472
:100239008008C2C1C2C2C2C3D2C47F011204A70BC3
:10024900BB00010A80B6E4FAFBC3EB950DEA950CF5
:10025900503EEB540314601414601B14601E2403F5
:100269007022C2C1C2C2C2C3D2C48018C2C1C2C232
:10027900D2C3C2C4800EC2C1D2C28004D2C1C2C21A
:10028900C2C3C2C47F011204A70BBB00010A80B913
:03029900E4F5C0C9
:01029C00223F
:1005120020B2030204FA20B304D20180052097F02E
:07052200C2011201F980E99A
:10032900C28ED291120571C291E4F58AF58C309092
:10033900FDD28C2090FDC28CAF8CEFFEAD8A7C0083
:10034900E42DFDEC3EFCE41201317BC57A207930C5
:10035900783E12002612016A8E098F0AD3E50A94A3
:10036900A0E509940F400675090F750AA0D28E22DF
:0505780012057DD2CD4B
:01057D00225B
:0A054B00D2CD12057DD2C002057D5D
:0A055500D2C0120578C2C002057D75
:0A055F00C2C0120578D2C002057D6B
:0B047B00120003120486AF05120003FC
:10048600E4FFD2CD12057D30C009EFC394FF5003BF
:080496000F80F4C2CD02057DC8
:10000300E4FEEF25E0FFC2CD12057D92C012057814
:0E0013000EBE08EEC2CD12057DD2C002057DE4
:10042700C2CD12057DD2C012057DE4FED2CD1205E4
:100437007DEF25E0FDA2C0E4334DFF12057DC2CD5F
:0A04470012057D0EBE08E512057DCA
:010451002288
:10045200E50B25E0FFE509FD120466E50B25E00446
:04046200FFE50AFDAB
:10046600AC071205557FA0120003120486AF0412D2
:05047600047B02055F9C
:0204DE00AD0768
:1004E0001205557FA012047B1205557FA11200034F
:0904F00012048612042712055FB4
:0104F90022E0
:080569008F992000FDD2002251
:0A0379001203291204FAAF0AAE09BC
:0A038300AB07AA06E5996422701E7C
:10038D00F50CC2AFE50C25E012049EE50C25E0044A
:0E039D0012049E050CE50CC3942040E8D2AF7C
:1003AB007F111205697F051204A7E59964EE70F0C1
:0A03BB00AF02120569AF03020569E5
:1003C500E4F5B375B4FFF5C0F5937594FFF5957530
:1003D5009608D2B3F580758901F58CF58A43985056
:1003E500758DFE758BE0758E40C298C299D28ED2FE
:0403F500ACD2AF22B5
:1003F900E599B4EEFBE50BC39420500F1203791273
:100409000452050BC2011201F980EAE50B60E11201
:0E0419000379120452150BD2011201F980ED85
:1004C0001203C512054BE4FBAF03AD031204667FB4
:0E04D000011204A70BBB08F01205120203F97B
:0300230002053B98
:10053B00309805859908C298309904C200C2993247
:10002600EC4D6011E8497017ED33EC3304600DE4D4
:10003600FCFFFEFD22E933E8330470F80201D61214
:1000460001A158046009E4CC248150062850090215
:1000560001E02840030201DDC0E0EB4A7044B980AC
:1000660006D0E0FB0201CCEF4E701CBD8008EBFF12
:10007600EAFEE9FD80EBE98DF0A4FEE5F002010F52
:10008600E9CDF9EAFEEBFFEF89F0A4FCE5F0CE89B5
:10009600F0A42EFFE435F0CD89F0A42DFEE435F072
:1000A6008067EF4E7005BD80D780C3EF8BF0A4ACA0
:1000B600F0EE8BF0A42CFCE435F0F8EF8AF0A42CDB
:1000C600E5F038FCE433CB8DF0A42CFCE5F03BF8EE
:1000D600EE8AF0A42CFCE5F038F8E433CF89F0A4DE
:1000E6002CFCE5F038CF3400CE89F0A42FFFE5F0E4
:1000F6003EFEE433C98DF0A42EFEE5F039CD8AF03C
:10010600A42FFFE5F03EFEE43DFD33D0E0FB5007B3
:100116000BBB000F0201E0EC2CFCEF33FFEE33FECD
:06012600ED33FD0201B8FB
:10012C0075F020800E75F010800575F0087D007E4E
:10013C00007F003392D530D5031201EBEC33401025
:10014C00EF33FFEE33FEED33FDEC33FCD5F0ED2257
:0E015C00E5F0247EA2D513CC92E7CDCEFF2293
:10016A00EDD2E7CD33EC3392D524814006E4FFFE8D
:10017A00FDFC22FCE4CFCECDCC24E0501174FF80EC
:10018A00EDC3CC13CCCD13CDCE13CECF13CF047089
:07019A00F030D5DE0201EB9D
:1001A100E9D2E7C933E833F892D5EDD2E7CD33ECA4
:0701B10033FC5002B2D5221D
:1001B800EC30E7100FBF000C0EBE00080DBD0004A8
:1001C8000BEB6014A2D5EB13FCED92E7FD2274FF54
:1001D800FCFDFEFF22E480F8A2D574FF13FC7D80AD
:0301E800E480EFC1
:1002A9000204C0E493A3F8E493A34003F68001F2A7
:1002B90008DFF48029E493A3F85407240CC8C33356
:1002C900C4540F4420C8834004F456800146F6DF25
:1002D900E4800B010204081020408090057EE47E32
:1002E900019360BCA3FF543F30E509541FFEE4931A
:1002F900A360010ECF54C025E060A840B8E493A3E1
:10030900FAE493A3F8E493A3C8C582C8CAC583CA0B
:10031900F0A3C8C582C8CAC583CADFE9DEE780BEC3
:01058000007A
:0E01EB00C3E49FFFE49EFEE49DFDE49CFC2225
:00000001FF
