:030000000202B148
:0C02B100787FE4F6D8FD7581200202F889
:1005110000010203040506073F065B4F666D7D0778
:020521007F6FEA
:02057000C18048
:05056400120569D2C878
:01056900226F
:1004A700EF1FAA0670011E4A60127C0B7DBEAB04CB
:0C04B7001CEB60ECAB051DEB60F480F862
:0104C3002216
:06055D0000007F48DFFEF4
:010563002275
:1004C400750F097980AF0F150FEF600F7F087E005D
:0B04D4001204A78980E9C313F980EA35
:0104DF0022FA
:0E053300D2C8120569D2C0120569E4F508228B
:0A054100D2C0120564C2C0020569B1
:0A054B00C2C0120564D2C0020569A7
:0B04840012000312048FAF05120003EA
:10048F00E4FFD2C812056930C009EFC394FF5003CF
:08049F000F80F4C2C8020569D8
:10000300E4FEEF25E0FFC2C812056992C012056441
:0E0013000EBE08EEC2C8120569D2C002056911
:10045900C2C8120569D2C0120569E4FED2C81205E4
:1004690069EF25E0FDA2C0E4334DFF120569C2C85A
:0A0479001205690EBE08E5120569C0
:010483002256
:1004FC00AC071205417FA012000312048FAF041247
:05050C00048402054B10
:0204E000AD0766
:1004E2001205417FA01204841205417FA11200036C
:0904F20012048F12045912054B8B
:0104FB0022DE
:1001F900751100751240300157E4F50FF510C3E58C
:10020900109512E50F951140030202ADE510540354
:1002190014601014601714601E24037022D2C1C226
:10022900C28004C2C1D2C2C2C3C2C48012C2C1C286
:10023900C2D2C3C2C48008C2C1C2C2C2C3D2C47FAF
:10024900017E001204A70510E51070B2050F80AEFB
:10025900E4F50FF510C3E5109512E50F951150441B
:10026900E510540314601414601B14601E240370F9
:1002790022C2C1C2C2C2C3D2C48018C2C1C2C2D2C0
:10028900C3C2C4800EC2C1D2C28004D2C1C2C2C21A
:10029900C3C2C47F017E001204A70510E51070B522
:0702A900050F80B1E4F5C070
:0102B000222B
:080555008F992000FDD2002265
:0A03DA008E0F8F10E5996422702247
:1003E400F511E51125E0FF1204E0120555E511258C
:1003F400E004FF1204E01205550511E511C3942031
:0204040040E0D6
:100406007F111205557F0A7E001204A7E59964EE56
:0D04160070EEE50FFF120555AF1002055501
:10042300E4F5B375B4FFF5C0F5937594FFF59575D1
:100433009608D2B3F580758901F58CF58A439850F7
:10044300758DFE758BE0758E40C298C299D28ED29F
:06045300ACD2AF0205333C
:10033D00C28ED29112055DC291E4F58AF58C309092
:10034D00FDD28C2090FDC28CAF8CEFFEAD8A7C006F
:10035D00E42DFDEC3EFCE41201317BC57A207930B1
:10036D00783E12002612016A8E0C8F0DD3E50D9486
:10037D00A0E50C940F4006750C0F750DA0D28E22C2
:10038D00E599B4EEFBE4F50E12033D1204C4AF0D76
:10039D00AE0C1203DAE50E25E0FFE50CFD1204FCB0
:1003AD00E50E25E004FFE50DFD1204FCD20112015E
:1003BD00F9050EE50EC3942040CEE4F50EE50EC30F
:0D03CD00942050BCC2011201F9050E80F011
:06056A0012042302038DC0
:03002300020523B0
:1005230030980585990BC298309904C200C299325C
:10002600EC4D6011E8497017ED33EC3304600DE4D4
:10003600FCFFFEFD22E933E8330470F80201D61214
:1000460001A158046009E4CC248150062850090215
:1000560001E02840030201DDC0E0EB4A7044B980AC
:1000660006D0E0FB0201CCEF4E701CBD8008EBFF12
:10007600EAFEE9FD80EBE98DF0A4FEE5F002010F52
:10008600E9CDF9EAFEEBFFEF89F0A4FCE5F0CE89B5
:10009600F0A42EFFE435F0CD89F0A42DFEE435F072
:1000A6008067EF4E7005BD80D780C3EF8BF0A4ACA0
:1000B600F0EE8BF0A42CFCE435F0F8EF8AF0A42CDB
:1000C600E5F038FCE433CB8DF0A42CFCE5F03BF8EE
:1000D600EE8AF0A42CFCE5F038F8E433CF89F0A4DE
:1000E6002CFCE5F038CF3400CE89F0A42FFFE5F0E4
:1000F6003EFEE433C98DF0A42EFEE5F039CD8AF03C
:10010600A42FFFE5F03EFEE43DFD33D0E0FB5007B3
:100116000BBB000F0201E0EC2CFCEF33FFEE33FECD
:06012600ED33FD0201B8FB
:10012C0075F020800E75F010800575F0087D007E4E
:10013C00007F003392D530D5031201EBEC33401025
:10014C00EF33FFEE33FEED33FDEC33FCD5F0ED2257
:0E015C00E5F0247EA2D513CC92E7CDCEFF2293
:10016A00EDD2E7CD33EC3392D524814006E4FFFE8D
:10017A00FDFC22FCE4CFCECDCC24E0501174FF80EC
:10018A00EDC3CC13CCCD13CDCE13CECF13CF047089
:07019A00F030D5DE0201EB9D
:1001A100E9D2E7C933E833F892D5EDD2E7CD33ECA4
:0701B10033FC5002B2D5221D
:1001B800EC30E7100FBF000C0EBE00080DBD0004A8
:1001C8000BEB6014A2D5EB13FCED92E7FD2274FF54
:1001D800FCFDFEFF22E480F8A2D574FF13FC7D80AD
:0301E800E480EFC1
:1002BD0002056AE493A3F8E493A34003F68001F2E8
:1002CD0008DFF48029E493A3F85407240CC8C33342
:1002DD00C4540F4420C8834004F456800146F6DF11
:1002ED00E4800B0102040810204080900570E47E2C
:1002FD00019360BCA3FF543F30E509541FFEE49306
:10030D00A360010ECF54C025E060A840B8E493A3CC
:10031D00FAE493A3F8E493A3C8C582C8CAC583CAF7
:10032D00F0A3C8C582C8CAC583CADFE9DEE780BEAF
:010572000088
:0E01EB00C3E49FFFE49EFEE49DFDE49CFC2225
:00000001FF
