:03000000020332C6
:0C033200787FE4F6D8FD75816302037942
:1005550000010203040506073F065B4F666D7D0734
:020565007F6FA6
:0205B600C18002
:10040E00E50825E0FFE562FD1205407F0112042C90
:0E041E00E50825E004FFE563FD1205407F01BF
:10042C00AC071FEC60127D0B7EBEAC051DEC60F0C2
:08043C00AC061EEC60F480F830
:010444002295
:0605A90000007F48DFFEA8
:0105AF002229
:100511007B097A80AF031BEF600D7F0812042C8AE0
:0705210080EAC313FA80ED2C
:0105280022B0
:1001F900750900750A4020014DE4FAFBC3EB950A25
:10020900EA95094003020299EB5403146010146043
:100219001714601E24037022D2C1C2C28004C2C155
:10022900D2C2C2C3C2C48012C2C1C2C2D2C3C2C472
:100239008008C2C1C2C2C2C3D2C47F0112042C0B3E
:10024900BB00010A80B6E4FAFBC3EB950AEA9509FB
:10025900503EEB540314601414601B14601E2403F5
:100269007022C2C1C2C2C2C3D2C48018C2C1C2C232
:10027900D2C3C2C4800EC2C1D2C28004D2C1C2C21A
:10028900C2C3C2C47F0112042C0BBB00010A80B98E
:03029900E4F5C0C9
:01029C00223F
:1005290020B20302051120B304D20180052097F0FF
:07053900C2011201F980E983
:1003BE00C28ED2911205A9C291E4F58AF58C3090C5
:1003CE00FDD28C2090FDC28CAF8CEFFEAD8A7C00EE
:1003DE00E42DFDEC3EFCE41201317BC57A20793030
:1003EE00783E12002612016A8E628F63D3E5639403
:1003FE00A0E562940F400675620F7563A0D28E223F
:0505B0001205B5D2CDDB
:0105B5002223
:0A058300D2CD1205B5D2C00205B5B5
:0A058D00D2C01205B0C2C00205B5CD
:0A059700C2C01205B0D2C00205B5C3
:0B04D2001200031204DDAF051200034E
:1004DD00E4FFD2CD1205B530C009EFC394FF500330
:0804ED000F80F4C2CD0205B539
:10000300E4FEEF25E0FFC2CD1205B592C01205B0A4
:0E0013000EBE08EEC2CD1205B5D2C00205B574
:1004A700C2CD1205B5D2C01205B5E4FED2CD1205F4
:1004B700B5EF25E0FDA2C0E4334DFF1205B5C2CD6F
:0A04C7001205B50EBE08E51205B5DA
:0104D1002208
:10054000AC0712058D7FA01200031204DDAF041268
:0505500004D202059732
:0204F500AD0751
:1004F70012058D7FA01204D212058D7FA112000371
:090507001204DD1204A71205978D
:0105100022C8
:0805A1008F992000FDD2002219
:0A029D001203BE120511AF63AE623A
:0A02A700AB07AA06E5996422706710
:1002B100F509C2AFF509E50925E0FF1204F5E509E5
:1002C10025E02421F8A6077F0112042CE50925E089
:1002D10004FF1204F5E50925E02422F8A6077F01B1
:1002E10012042C0509E509C3942040CAD2AF7F014D
:1002F10012042CE4F509E50925E02421F8E6FF12B2
:1003010005A1E50925E02422F8E6FF1205A105096A
:07031100E509C3942040DF61
:100318007F111205A17F0512042CE59964EE70F097
:0A032800AF021205A1AF030205A108
:10044500E4F5B375B4FFF5C0F5937594FFF59575AF
:100455009608D2B3F580758901F58CF58A439850D5
:10046500758DFE758BE0758E40C298C299D28ED27D
:04047500ACD2AF2234
:10047900E599B4EEFBE508C39420500F12029D12D2
:10048900040E0508C2011201F980EAE50860E112CB
:0E049900029D12040E1508D2011201F980ED29
:0C057700120445120583120529020479C4
:030023000205676C
:10056700309805859961C298309904C200C29932C2
:10002600EC4D6011E8497017ED33EC3304600DE4D4
:10003600FCFFFEFD22E933E8330470F80201D61214
:1000460001A158046009E4CC248150062850090215
:1000560001E02840030201DDC0E0EB4A7044B980AC
:1000660006D0E0FB0201CCEF4E701CBD8008EBFF12
:10007600EAFEE9FD80EBE98DF0A4FEE5F002010F52
:10008600E9CDF9EAFEEBFFEF89F0A4FCE5F0CE89B5
:10009600F0A42EFFE435F0CD89F0A42DFEE435F072
:1000A6008067EF4E7005BD80D780C3EF8BF0A4ACA0
:1000B600F0EE8BF0A42CFCE435F0F8EF8AF0A42CDB
:1000C600E5F038FCE433CB8DF0A42CFCE5F03BF8EE
:1000D600EE8AF0A42CFCE5F038F8E433CF89F0A4DE
:1000E6002CFCE5F038CF3400CE89F0A42FFFE5F0E4
:1000F6003EFEE433C98DF0A42EFEE5F039CD8AF03C
:10010600A42FFFE5F03EFEE43DFD33D0E0FB5007B3
:100116000BBB000F0201E0EC2CFCEF33FFEE33FECD
:06012600ED33FD0201B8FB
:10012C0075F020800E75F010800575F0087D007E4E
:10013C00007F003392D530D5031201EBEC33401025
:10014C00EF33FFEE33FEED33FDEC33FCD5F0ED2257
:0E015C00E5F0247EA2D513CC92E7CDCEFF2293
:10016A00EDD2E7CD33EC3392D524814006E4FFFE8D
:10017A00FDFC22FCE4CFCECDCC24E0501174FF80EC
:10018A00EDC3CC13CCCD13CDCE13CECF13CF047089
:07019A00F030D5DE0201EB9D
:1001A100E9D2E7C933E833F892D5EDD2E7CD33ECA4
:0701B10033FC5002B2D5221D
:1001B800EC30E7100FBF000C0EBE00080DBD0004A8
:1001C8000BEB6014A2D5EB13FCED92E7FD2274FF54
:1001D800FCFDFEFF22E480F8A2D574FF13FC7D80AD
:0301E800E480EFC1
:10033E00020577E493A3F8E493A34003F68001F259
:10034E0008DFF48029E493A3F85407240CC8C333C0
:10035E00C4540F4420C8834004F456800146F6DF8F
:10036E00E4800B01020408102040809005B6E47E64
:10037E00019360BCA3FF543F30E509541FFEE49384
:10038E00A360010ECF54C025E060A840B8E493A34B
:10039E00FAE493A3F8E493A3C8C582C8CAC583CA76
:1003AE00F0A3C8C582C8CAC583CADFE9DEE780BE2E
:0105B8000042
:0E01EB00C3E49FFFE49EFEE49DFDE49CFC2225
:00000001FF
