:030000000202B148
:0C02B100787FE4F6D8FD7581200202F889
:1005310000010203040506073F065B4F666D7D0758
:020541007F6FCA
:02059300C18025
:05058D00120592D2C826
:010592002246
:1004C500EF1FAA0670011E4A60127C0B7DBEAB04AD
:0C04D5001CEB60ECAB051DEB60F480F844
:0104E10022F8
:0605860000007F48DFFECB
:01058C00224C
:1004E200750F097980AF0F150FEF600F7F087E003F
:0B04F2001204C58980E9C313F980EAF9
:0104FD0022DC
:0E055300D2C8120592D2C0120592E4F5082219
:0A056100D2C012058DC2C00205923F
:0A056B00C2C012058DD2C002059235
:0B04A2001200031204ADAF05120003AE
:1004AD00E4FFD2C812059230C009EFC394FF500388
:0804BD000F80F4C2C802059291
:10000300E4FEEF25E0FFC2C812059292C012058DEF
:0E0013000EBE08EEC2C8120592D2C0020592BF
:10044E00C2C8120592D2C0120592E4FED2C812059D
:10045E0092EF25E0FDA2C0E4334DFF120592C2C813
:0A046E001205920EBE08E512059279
:010478002261
:10047900E50E25E0FFE50CFD12048DE50E25E004EF
:04048900FFE50DFD81
:10048D00AC071205617FA01200031204ADAF041278
:05049D0004A202056B42
:0204FE00AD0748
:100500001205617FA01204A21205617FA1120003EF
:090510001204AD12044E12056B39
:0105190022BF
:1001F900751100751240200157E4F50FF510C3E59C
:10020900109512E50F951140030202ADE510540354
:1002190014601014601714601E24037022D2C1C226
:10022900C28004C2C1D2C2C2C3C2C48012C2C1C286
:10023900C2D2C3C2C48008C2C1C2C2C2C3D2C47FAF
:10024900017E001204C50510E51070B2050F80AEDD
:10025900E4F50FF510C3E5109512E50F951150441B
:10026900E510540314601414601B14601E240370F9
:1002790022C2C1C2C2C2C3D2C48018C2C1C2C2D2C0
:10028900C3C2C4800EC2C1D2C28004D2C1C2C2C21A
:10029900C3C2C47F017E001204C50510E51070B504
:0702A900050F80B1E4F5C070
:0102B000222B
:08057E008F992000FDD200223C
:0A038D008E0F8F10E5996422702294
:10039700F511E51125E0FF1204FE12057EE5112592
:1003A700E004FF1204FE12057E0511E511C3942037
:0203B70040E024
:1003B9007F1112057E7F057E001204C5E59964EE62
:0D03C90070EEE50FFF12057EAF1002057EFD
:10041800E4F5B375B4FFF5C0F5937594FFF59575DC
:100428009608D2B3F580758901F58CF58A43985002
:10043800758DFE758BE0758E40C298C299D28ED2AA
:06044800ACD2AF02055327
:10033D00C28ED291120586C291E4F58AF58C309069
:10034D00FDD28C2090FDC28CAF8CEFFEAD8A7C006F
:10035D00E42DFDEC3EFCE41201317BC57A207930B1
:10036D00783E12002612016A8E0C8F0DD3E50D9486
:10037D00A0E50C940F4006750C0F750DA0D28E22C2
:10051A0020B2030204E220B304D20180052097F03E
:07052A00C2011201F980E992
:1003D600E599B4EEFBE50EC39420501912033D12C5
:1003E60004E2AF0DAE0C12038D120479050EC201A4
:1003F6001201F980E0E50E60D712033D1204E2AF68
:100406000DAE0C12038D120479150ED2011201F9EC
:0204160080E381
:0905750012041812051A0203D643
:0300230002054390
:1005430030980585990BC298309904C200C299323C
:10002600EC4D6011E8497017ED33EC3304600DE4D4
:10003600FCFFFEFD22E933E8330470F80201D61214
:1000460001A158046009E4CC248150062850090215
:1000560001E02840030201DDC0E0EB4A7044B980AC
:1000660006D0E0FB0201CCEF4E701CBD8008EBFF12
:10007600EAFEE9FD80EBE98DF0A4FEE5F002010F52
:10008600E9CDF9EAFEEBFFEF89F0A4FCE5F0CE89B5
:10009600F0A42EFFE435F0CD89F0A42DFEE435F072
:1000A6008067EF4E7005BD80D780C3EF8BF0A4ACA0
:1000B600F0EE8BF0A42CFCE435F0F8EF8AF0A42CDB
:1000C600E5F038FCE433CB8DF0A42CFCE5F03BF8EE
:1000D600EE8AF0A42CFCE5F038F8E433CF89F0A4DE
:1000E6002CFCE5F038CF3400CE89F0A42FFFE5F0E4
:1000F6003EFEE433C98DF0A42EFEE5F039CD8AF03C
:10010600A42FFFE5F03EFEE43DFD33D0E0FB5007B3
:100116000BBB000F0201E0EC2CFCEF33FFEE33FECD
:06012600ED33FD0201B8FB
:10012C0075F020800E75F010800575F0087D007E4E
:10013C00007F003392D530D5031201EBEC33401025
:10014C00EF33FFEE33FEED33FDEC33FCD5F0ED2257
:0E015C00E5F0247EA2D513CC92E7CDCEFF2293
:10016A00EDD2E7CD33EC3392D524814006E4FFFE8D
:10017A00FDFC22FCE4CFCECDCC24E0501174FF80EC
:10018A00EDC3CC13CCCD13CDCE13CECF13CF047089
:07019A00F030D5DE0201EB9D
:1001A100E9D2E7C933E833F892D5EDD2E7CD33ECA4
:0701B10033FC5002B2D5221D
:1001B800EC30E7100FBF000C0EBE00080DBD0004A8
:1001C8000BEB6014A2D5EB13FCED92E7FD2274FF54
:1001D800FCFDFEFF22E480F8A2D574FF13FC7D80AD
:0301E800E480EFC1
:1002BD00020575E493A3F8E493A34003F68001F2DD
:1002CD0008DFF48029E493A3F85407240CC8C33342
:1002DD00C4540F4420C8834004F456800146F6DF11
:1002ED00E4800B0102040810204080900593E47E09
:1002FD00019360BCA3FF543F30E509541FFEE49306
:10030D00A360010ECF54C025E060A840B8E493A3CC
:10031D00FAE493A3F8E493A3C8C582C8CAC583CAF7
:10032D00F0A3C8C582C8CAC583CADFE9DEE780BEAF
:010595000065
:0E01EB00C3E49FFFE49EFEE49DFDE49CFC2225
:00000001FF
