:030000000202B148
:0C02B100787FE4F6D8FD7581200202F889
:1005950000010203040506073F065B4F666D7D07F4
:0205A5007F6F66
:0205F700C180C1
:0505F1001205F6D2C85E
:0105F60022E2
:10054000EF1FAA0670011E4A60127C0B7DBEAB0431
:0C0550001CEB60ECAB051DEB60F480F8C8
:01055C00227C
:0605EA0000007F48DFFE67
:0105F00022E8
:10055D007517097980AF171517EF600F7F087E00AB
:0B056D001205408980E9C313F980EA01
:010578002260
:0E05B700D2C81205F6D2C01205F6E4F50822ED
:0A05C500D2C01205F1C2C00205F613
:0A05CF00C2C01205F1D2C00205F609
:0B051D00120003120528AF05120003B6
:10052800E4FFD2C81205F630C009EFC394FF5003A8
:080538000F80F4C2C80205F6B1
:10000300E4FEEF25E0FFC2C81205F692C01205F127
:0E0013000EBE08EEC2C81205F6D2C00205F6F7
:1004C900C2C81205F6D2C01205F6E4FED2C812055A
:1004D900F6EF25E0FDA2C0E4334DFF1205F6C2C8D0
:0A04E9001205F60EBE08E51205F636
:0104F30022E6
:1004F400E51625E0FFE50EFD120508E51625E004E6
:04050400FFE50FFD03
:10050800AC071205C57FA0120003120528AF04121C
:05051800051D0205CFE6
:02057900AD07CC
:10057B001205C57FA012051D1205C57FA112000330
:09058B001205281204C91205CF63
:010594002244
:1001F900751900751A40200157E4F517F518C3E57C
:1002090018951AE517951940030202ADE51854032C
:1002190014601014601714601E24037022D2C1C226
:10022900C28004C2C1D2C2C2C3C2C48012C2C1C286
:10023900C2D2C3C2C48008C2C1C2C2C2C3D2C47FAF
:10024900017E001205400518E51870B2051780AE49
:10025900E4F517F518C3E518951AE51795195044EB
:10026900E518540314601414601B14601E240370F1
:1002790022C2C1C2C2C2C3D2C48018C2C1C2C2D2C0
:10028900C3C2C4800EC2C1D2C28004D2C1C2C2C21A
:10029900C3C2C47F017E001205400518E51870B578
:0702A900051780B1E4F5C068
:0102B000222B
:0805E2008F992000FDD20022D8
:0A0401008E178F18E599642270220F
:10040B00F519E51925E0FF1205791205E2E5192525
:10041B00E004FF1205791205E20519E519C39420D2
:02042B0040E0AF
:10042D007F111205E27F0A7E00120540E59964EE08
:0D043D0070EEE517FF1205E2AF180205E2B0
:10049300E4F5B375B4FFF5C0F5937594FFF5957561
:1004A3009608D2B3F580758901F58CF58A43985087
:1004B300758DFE758BE0758E40C298C299D28ED22F
:0604C300ACD2AF0205B748
:1003B100C28ED2911205EAC291E4F58AF58C309091
:1003C100FDD28C2090FDC28CAF8CEFFEAD8A7C00FB
:1003D100E42DFDEC3EFCE41201317BC57A2079303D
:1003E100783E12002612016A8E0E8F0FD3E50F940C
:1003F100A0E50E940F4006750E0F750FA0D28E2248
:10033D00050DE50D7002050C20B2080511E51170D3
:10034D0002051020B3080513E5137002051220975E
:10035D00080515E51570020514C3E50D940AE50CA5
:10036D0094004011E4F514F515F512F513F510F59B
:10037D0011F50CF50DC3E5119407E510940040033C
:10038D0002055DC3E5139407E51294004004D20104
:10039D00800DC3E5159407E51494004093C2011236
:0403AD0001F9808C46
:10044A00E599B4EEFBE4F5161203B112055DAF0FA0
:10045A00AE0E1204011204F4C2011201F90516E5E6
:10046A0016C3942040E275161FE516C3940040D0C7
:10047A001203B112055DAF0FAE0E1204011204F49D
:09048A00D2011201F9151680E0FF
:0905D90012049312033D02044ACE
:030023000205A72C
:1005A70030980585990BC298309904C200C29932D8
:10002600EC4D6011E8497017ED33EC3304600DE4D4
:10003600FCFFFEFD22E933E8330470F80201D61214
:1000460001A158046009E4CC248150062850090215
:1000560001E02840030201DDC0E0EB4A7044B980AC
:1000660006D0E0FB0201CCEF4E701CBD8008EBFF12
:10007600EAFEE9FD80EBE98DF0A4FEE5F002010F52
:10008600E9CDF9EAFEEBFFEF89F0A4FCE5F0CE89B5
:10009600F0A42EFFE435F0CD89F0A42DFEE435F072
:1000A6008067EF4E7005BD80D780C3EF8BF0A4ACA0
:1000B600F0EE8BF0A42CFCE435F0F8EF8AF0A42CDB
:1000C600E5F038FCE433CB8DF0A42CFCE5F03BF8EE
:1000D600EE8AF0A42CFCE5F038F8E433CF89F0A4DE
:1000E6002CFCE5F038CF3400CE89F0A42FFFE5F0E4
:1000F6003EFEE433C98DF0A42EFEE5F039CD8AF03C
:10010600A42FFFE5F03EFEE43DFD33D0E0FB5007B3
:100116000BBB000F0201E0EC2CFCEF33FFEE33FECD
:06012600ED33FD0201B8FB
:10012C0075F020800E75F010800575F0087D007E4E
:10013C00007F003392D530D5031201EBEC33401025
:10014C00EF33FFEE33FEED33FDEC33FCD5F0ED2257
:0E015C00E5F0247EA2D513CC92E7CDCEFF2293
:10016A00EDD2E7CD33EC3392D524814006E4FFFE8D
:10017A00FDFC22FCE4CFCECDCC24E0501174FF80EC
:10018A00EDC3CC13CCCD13CDCE13CECF13CF047089
:07019A00F030D5DE0201EB9D
:1001A100E9D2E7C933E833F892D5EDD2E7CD33ECA4
:0701B10033FC5002B2D5221D
:1001B800EC30E7100FBF000C0EBE00080DBD0004A8
:1001C8000BEB6014A2D5EB13FCED92E7FD2274FF54
:1001D800FCFDFEFF22E480F8A2D574FF13FC7D80AD
:0301E800E480EFC1
:1002BD000205D9E493A3F8E493A34003F68001F279
:1002CD0008DFF48029E493A3F85407240CC8C33342
:1002DD00C4540F4420C8834004F456800146F6DF11
:1002ED00E4800B01020408102040809005F7E47EA5
:1002FD00019360BCA3FF543F30E509541FFEE49306
:10030D00A360010ECF54C025E060A840B8E493A3CC
:10031D00FAE493A3F8E493A3C8C582C8CAC583CAF7
:10032D00F0A3C8C582C8CAC583CADFE9DEE780BEAF
:0105F9000001
:0E01EB00C3E49FFFE49EFEE49DFDE49CFC2225
:00000001FF
