:030000000200F704
:0C00F700787FE4F6D8FD75814502013EDB
:1002A70010233F065B4F666D7D077F6F777C395E56
:0C02B700797108360001020304050607F7
:10018300053EE53EB40803E4F53EE4F58074362508
:100193003EF8E6F5A0E53EB4070050339001A6F81B
:1001A3002828730201BB0201BE0201C10201C3027E
:1001B30001C70201C10201CEEF8006EF8012800762
:1001C300EDC4800CED800975804022EBC48001EB07
:0901D300540F2423F8E6F5802204
:10024000E4F53FC206D200D203D201D204D202D2D8
:1002500005F540754186F542754386F5447545863A
:06026000F53475350A2299
:05000300120008D2CD3F
:0100080022D5
:0A031C00D2CD120008D2C002000882
:0A032600D2C0120003C2C00200089A
:0A033000C2C0120003D2C002000890
:0B026600120289120271AF051202891A
:10027100E4FFD2CD12000830C009EFC394FF500350
:080281000F80F4C2CD02000859
:10028900E4FEEF25E0FFC2CD12000892C012000380
:0E0299000EBE08EEC2CD120008D2C002000850
:10021500C2CD120008D2C0120008E4FED2CD1200F1
:1002250008EF25E0FDA2C0E4334DFF120008C2CD62
:0A0235001200080EBE08E5120008D2
:01023F00229C
:1002E000AC071203267FA0120289120271AF04121A
:0502F00002660203306C
:0202C400AD0784
:1002C6001203267FA01202661203267FA11202895C
:0902D6001202711202151203302C
:0102DF0022FC
:1002F500E4F595759608F5937594FFC2A3F580F519
:0403050022F5332288
:10030900E4F589758E80D2AFD2A9758CFB758AAE5A
:03031900D28C2261
:03000B000201DC13
:1001DC00C0E0C083C082C0D075D000C000C003C0D6
:1001EC0005C007053FE53FB40A05D206753F00ABD5
:1001FC0021AD33AF22120183D007D005D003D0003C
:09020C00D0D0D082D083D0E032C2
:10000E001202F512030912024012031C3006FDC241
:10001E0006AF221202C48F2120B208E541154170AD
:10002E0002154020B308E543154370021542209790
:10003E0008E545154570021544E535153570021570
:10004E0034E535453470C5C3E5419480E5409400F0
:10005E00500EC200300309C203AD33AF221202E0CC
:10006E00C3E5419480E54094004007D2002003028E
:10007E00D203C3E5439480E54294005011C201308F
:10008E00040CC2040533E533B4FF03E4F533C3E5D2
:10009E00439480E54294004007D201200402D2042A
:1000AE00C3E5459480E54494005011C20230050C1E
:1000BE00C2050522E522B4FF03E4F522C3E545940B
:1000CE0080E54494004007D202200502D205754017
:1000DE0000754186754200754386754400754586E8
:0900EE0075340075350A02001A90
:1001030002000EE493A3F8E493A34003F68001F204
:1001130008DFF48029E493A3F85407240CC8C333FD
:10012300C4540F4420C8834004F456800146F6DFCC
:10013300E4800B01020408102040809002A7E47EB3
:10014300019360BCA3FF543F30E509541FFEE493C1
:10015300A360010ECF54C025E060A840B8E493A388
:10016300FAE493A3F8E493A3C8C582C8CAC583CAB3
:10017300F0A3C8C582C8CAC583CADFE9DEE780BE6B
:0102C300003A
:00000001FF
